:100000000C945D000C9485000C9485000C94850084
:100010000C9485000C9485000C9485000C9485004C
:100020000C9485000C9485000C9485000C9485003C
:100030000C9485000C9485000C9485000C9485002C
:100040000C94AB030C9485000C9485000C948500F3
:100050000C9485000C9485000C9485000C9485000C
:100060000C9485000C94850000000008000201003B
:100070000003040700000000000000000000000072
:10008000250028002B0000000000240027002A0083
:10009000040404040404040402020202020203032E
:1000A0000303030301020408102040800102040836
:1000B0001020010204081020D00611241FBECFEF2B
:1000C000D8E0DEBFCDBF11E0A0E0B1E0EAEDFDE099
:1000D00002C005900D92AA31B107D9F721E0AAE13B
:1000E000B1E001C01D92A433B207E1F710E0CDE505
:1000F000D0E004C02197FE010E94E506CC35D1076F
:10010000C9F70E94F5030C94EB060C94000090E0F4
:10011000FC01EC55FF4F249180579F4FFC018491C7
:10012000882399F090E0880F991FFC01EA57FF4F50
:10013000A591B491FC01E458FF4F859194918FB73C
:10014000F894EC91E22BEC938FBF089590E0FC01C2
:10015000E859FF4F2491FC01EC55FF4F3491FC010D
:10016000E057FF4FE491EE23C9F0222339F023300A
:1001700001F1A8F4213019F1223029F1F0E0EE0F5D
:10018000FF1FE458FF4FA591B4918FB7F894EC91FD
:10019000611126C030953E233C938FBF08952730D0
:1001A000A9F02830C9F0243049F7809180008F7D74
:1001B00003C0809180008F7780938000DFCF84B56B
:1001C0008F7784BDDBCF84B58F7DFBCF8091B0006E
:1001D0008F778093B000D2CF8091B0008F7DF9CF20
:1001E0003E2BDACF3FB7F8948091300190913101E6
:1001F000A0913201B091330126B5A89B05C02F3FD5
:1002000019F00196A11DB11D3FBFBA2FA92F982F3C
:100210008827BC01CD01620F711D811D911D42E037
:10022000660F771F881F991F4A95D1F708958F92FF
:100230009F92AF92BF92CF92DF92EF92FF924B01CB
:100240005C010E94F2006B017C010E94F2006C19BB
:100250007D098E099F09683E734081059105A8F3C9
:1002600021E0821A9108A108B10888EEC80E83E047
:10027000D81EE11CF11C81149104A104B10429F7DA
:10028000FF90EF90DF90CF90BF90AF909F908F90B6
:100290000895CF93DF93EC0188810E9487008A81C3
:1002A0000E94870060E088810E94A60060E08A8149
:1002B000DF91CF910C94A600EEE1F1E01082118263
:1002C000128213820895AF92BF92CF92DF92EF9283
:1002D000FF920F931F93CF93DF93EC015B0160E0DC
:1002E0008A810E94A600750184E0E80EF11CF701E6
:1002F000C2907F0110E000E0D12CB601002E02C0B8
:10030000759567950A94E2F7617088810E94A6004E
:1003100061E08A810E94A60060E08A810E94A600B6
:100320000F5F1F4F0830110541F7AE14BF04F9F6F7
:1003300060E08881DF91CF911F910F91FF90EF9046
:10034000DF90CF90BF90AF900C94A600CF93DF9337
:10035000EC0161E089E00E94A60060E088E00E9474
:10036000A60061E088E00E94A60060E088E00E94AC
:10037000A600FE013197E431F105E8F4EE53FE4F9B
:100380000C94E506D601F001F401F801FC0100022D
:10039000040208020C02120216021A021E022202B3
:1003A00026022A022E02340238023C0280911E01EB
:1003B000806880931E0180912101886080932101D3
:1003C0006EE171E08AE191E00E94630161E088E002
:1003D0000E94A60060E089E0DF91CF910C94A60016
:1003E00080911E018064E5CF80911E018062E1CF83
:1003F00080911E018061DDCF80911E018860D9CF80
:1004000080911E018460D5CF80911E018260D1CF82
:1004100080911E018160CDCF80911F018068809303
:100420001F01C9CF80911F018064F9CF80911F0106
:100430008062F5CF80911F018061F1CF80911F0113
:100440008860EDCF80911F018460E9CF80911F010A
:100450008260E5CF80911F018160E1CF8091200112
:10046000806880932001A7CF809120018064F9CF1C
:10047000809120018062F5CF809120018061F1CFD1
:10048000CF93C82F61E087E00E94A60060E086E07D
:100490000E94A60061E086E00E94A60060E086E07F
:1004A0000E94A600E4ECEC0FEF3108F053C00E2ED2
:1004B000000CFF0BE25AFD4F0C94E5067E03AA02E6
:1004C0007703AA02AA027D02880293029E02B90261
:1004D000C402CF02DA02DC02E702F202FD020503E7
:1004E0000D0315031D0322032D0335033D034803AC
:1004F0004A0352035D036803700384E78093260177
:1005000083E68093270188EF8093280184EC20C044
:1005100084EF8093260183E68093270188EE809301
:10052000280188EF15C084E78093260181E6809337
:10053000270188E08093280188EB0AC084EE80932D
:10054000260183EA8093270189E18093280180E7CF
:100550008093290166E271E082E291E00E946301EA
:1005600061E086E00E94A60060E087E0CF910C94F5
:10057000A6008CEF8093260181E28093270188EE0C
:10058000809328018CE7E4CF8CEF8093260181E2F1
:100590008093270188EE8093280182E4D9CF84E7F5
:1005A0008093260181E68093270188E780932801C4
:1005B0008CEBCECF8CE8A2CF81E78093260188E038
:1005C0008093270182E48093280188E3C1CF88E3E8
:1005D0008093260184E88093270189E28093280193
:1005E00080E3B6CF8CE88093260189EA80932701C7
:1005F0008AE8809328018AE4ABCF84E880932601BF
:1006000081E28093270188E0BBCF8EE880932601AA
:100610008BEE8093270188E577CF8CE880932601C5
:1006200083E78093270189E56FCF84E780932601D4
:1006300083E68093270188E17DCF84EF80932601B4
:1006400083E6A6CF84E78093260183E68093270183
:1006500089E58093280184E37BCF84EF8093260192
:1006600083E6809327018AEEC4CF8CE7809326012E
:1006700080E28093270180EE52CF89EF809326019C
:1006800088E08093270182E48093280180E160CF95
:100690008CE8CCCF8CE88093260183E680932701F9
:1006A00085E1F2CF8CE88093260183E680932701D1
:1006B0008AE58093280188EA4BCF8CE88093260155
:1006C00084E58093270185E48093280184E440CF6A
:1006D0008CE88093260182E68093270182EAD4CFBA
:1006E00088EF8093260184E48093270149CF81E13C
:1006F000809326018093270184E0C6CF81E4809314
:10070000260184E08093270181E18093280120CF96
:1007100061E087E00E94A60060E086E00E94A600FB
:1007200061E086E00E94A60060E086E00E94A600EC
:10073000E6E2F1E01082118212821382BF0182E2AE
:1007400091E00E94630161E086E00E94A60060E003
:1007500087E00C94A6001F920F920FB60F921124FF
:100760002F933F938F939F93AF93BF9380912C01CF
:1007700090912D01A0912E01B0912F0130912B016C
:1007800023E0230F2D3758F50196A11DB11D2093AD
:100790002B0180932C0190932D01A0932E01B093F7
:1007A0002F018091300190913101A0913201B091DF
:1007B00033010196A11DB11D809330019093310149
:1007C000A0933201B0933301BF91AF919F918F916C
:1007D0003F912F910F900FBE0F901F90189526E814
:1007E000230F0296A11DB11DD2CF789484B58260EB
:1007F00084BD84B5816084BD85B5826085BD85B5C5
:10080000816085BD80916E00816080936E00109242
:1008100081008091810082608093810080918100BD
:10082000816080938100809180008160809380004E
:100830008091B10084608093B1008091B0008160AC
:100840008093B00080917A00846080937A008091D8
:100850007A00826080937A0080917A008160809330
:100860007A0080917A00806880937A001092C100AB
:1008700082E291E00E9449018AE191E00E944901EF
:1008800088E00E94870086E00E94870087E00E943F
:10089000870089E00E94870044E7742EC0E250E0A0
:1008A000A52E50E0B52ED8E261E087E00E94A600B8
:1008B00060E086E00E94A60061E086E00E94A6005B
:1008C00060E086E00E94A6001FEF109326011093BF
:1008D0002701109328011093290166E271E082E25A
:1008E00091E00E94630161E086E00E94A60060E062
:1008F00087E00E94A60061E089E00E94A60060E017
:1009000088E00E94A60061E088E00E94A60060E006
:1009100088E00E94A60010931E0110931F011093FF
:100920002001109321016EE171E08AE191E00E94C3
:10093000630161E088E00E94A60060E089E00E9417
:10094000A60068EE73E080E090E00E9417010E942C
:1009500088030E945C0101E010E0F8EFDF2EA8EEB2
:10096000CA2EB8EBEB2E84E4982E92E3892E21E276
:10097000622E3CEF532E80912A018B3018F081E0DB
:1009800080932A01C8010E94A601F0902A0161E02B
:1009900087E00E94A60060E086E00E94A60061E079
:1009A00086E00E94A60060E086E00E94A600E9E0E2
:1009B000EF1528F1EF2DF0E0E052FB4F0C94E50627
:1009C000EA04F304AB05B205BC05C705CE05D505A1
:1009D000DE05E4057092260187E6809327018CE509
:1009E00080932801C6C083E28093260188E080932B
:1009F000270182E4809328018CE78093290166E235
:100A000071E082E291E00E94630161E086E00E9471
:100A1000A60060E087E00E94A60068EE73E080E038
:100A200090E00E941701F394F0922A010E945C0169
:100A30000F5F1F4F0B30110509F09DCF10922A0157
:100A400000E011E080912A018F5F8F3008F0C7C06D
:100A500080932A0180912A0190E00E94A601F8016A
:100A600081918F010E94400268EE73E080E090E087
:100A70000E9417010E945C01F1E00A311F0711F783
:100A800001E010E0C8010E94A6018CE30E94400230
:100A900068EC70E080E090E00E9417010E945C0129
:100AA0000F5F1F4F0E30110569F70FE010E0C8010E
:100AB0000E94A6018EE30E94400268EC70E080E094
:100AC00090E00E9417010E945C010150110979F722
:100AD00084E180932A01EE24E394F12C90EA692EBC
:100AE00005E228E0322E30E8D32E42E1C42E50E950
:100AF000952E14E160E5462E70E1572EE4E02E2E8F
:100B00000E94880380902A01882D90E00E94A6010F
:100B100061E087E00E94A60060E086E00E94A600F7
:100B200061E086E00E94A60060E086E00E94A600E8
:100B3000EEEFEE0DE93008F054C0F0E0EE55FA4F5C
:100B40000C94E506F80531063B06400649065206B8
:100B500055065A065F067092260182E480932701AB
:100B600086E248CFD092260188E880932701D0936F
:100B70002801E092290143CF81E18093260185E994
:100B8000809327018FE28093280188E836CF509226
:100B90002601FCE3F093270188E122CF8092260111
:100BA00060922701C0922801E4CFD0922601909252
:100BB000270190922801C093290121CF709226012C
:100BC00082E680932701EECF70922601E2E6E09361
:100BD0002701F0EFF0932801D092290110CF81E096
:100BE00037CF60922601C0932701C093280140C0EF
:100BF000C093260110922701C09328011092290169
:100C000066E271E082E291E00E94630161E086E0C9
:100C10000E94A60060E087E00E94A60061E087E0F5
:100C20000E94A60060E086E00E94A60061E086E0E7
:100C30000E94A60060E086E00E94A600F7013197BE
:100C4000E930F10508F046C0E85DF94F0C94E5067F
:100C500062069606A006A606AF06B906BC06C10641
:100C6000C8066092260185E0809327011092280132
:100C7000D0932901C5CFD092260100932701F6CF4A
:100C80001092260100932701C0932801C0932901E7
:100C9000B7CFD092260100932701C093280130924C
:100CA0002901AECF60922601F6CF10922601C093A3
:100CB0002701DCCF609226010093270196CF109286
:100CC0002601FACF50922601109227015092280156
:100CD0001092290166E271E082E291E00E946301D4
:100CE00061E086E00E94A60060E087E00E94A60026
:100CF00068EE73E080E090E00E9417018FEF880DAE
:100D0000813108F44AC080932A010E945C01EFEF10
:100D1000EE1AFE0AFBE0EF16F10409F0F1CEA11481
:100D2000B10409F4C1CD0E940000BDCD409226015E
:100D300082E080932701D092280110932901CACF25
:100D400080E480932601C0922701F5CF10922601FE
:100D5000C09227019092280150922901BBCF80E4D4
:100D600080932601C09227019092280120922901A8
:100D7000B1CF40922601F6CF109226015092270162
:100D8000DACF409226011093270190922801D5CF07
:100D900010922601C0922701F8CF10932A01B5CFF7
:100DA000E2E2F1E08EE090E0918380838FE090E0DA
:100DB00093838283EAE1F1E080E190E09183808394
:100DC00081E190E0938382830895EE0FFF1F0590E9
:0A0DD000F491E02D0994F894FFCF90
:100DDA004142434445464748494A4B4C4D4E4F5081
:0A0DEA005152535455565758595AA8
:00000001FF
